:1000000029EF00F00000000000EF00F00000000009
:0A0010000000000000000000F3D71C
:10001C00086A096A100E0C6E013408360936045051
:10002C00085E0550D8A0053C095ED8B007D0045036
:10003C0008260550D8B0053C0926D8900036013664
:06004C000C2EEAD71200A1
:100052003F0E246E060E256E5B0E266E4F0E276E29
:10006200660E286E6D0E296E7D0E2A6E070E2B6EA1
:100072007F0E2C6E6F0E2D6E0F0EC16E93809382CB
:100082009384929492969298929A939A939C939E26
:100092009492956A156A166A176A186A196A1A6A30
:1000A2001B6A1C6A81B011D01D50000A0EE1010EBC
:1000B2001D6E154A162A1650270802E115500F0820
:1000C20004E20F0E156E270E166E81A004D01D508D
:1000D200010AD8B41D6A15C020F016C021F081B201
:1000E20011D01E50000A0EE1010E1E6E174A182A88
:1000F2001850270802E117500F0804E20F0E176E7E
:10010200270E186E81A204D01E50010AD8B41E6AAE
:1001120017C022F018C023F081B40DD01F50000A7E
:100122000AE1010E1F6E156A166A176A186A010E35
:100132001B6E000E1C6E81A404D01F50010AD8B49D
:100142001F6A010E2014016E21C002F0000E021679
:10015200000E021802E1000E011802E1818C01D0AA
:10016200819C010E2214016E23C002F0000E0216C1
:10017200000E021802E1010E011802E1818E01D087
:10018200819E000E1C1802E1010E1B1813E1818AE8
:100192008282020E0B6E040E0C6EBA0E0D6E0D2EC6
:1001A200FED70C2EFCD70B2EFAD70000819A829232
:1001B2001B6A1C6A22502024006E23502120016EEB
:1001C20000C019F001C01AF00A0E046E000E056E8E
:1001D20024DF08C000F009C001F0240E0024E96EFB
:1001E200000E0120EA6EEECF83FF808A060E0C6EAF
:1001F200300E0D6E0D2EFED70C2EFCD70000809A0D
:100202000A0E046E000E056E19C000F01AC001F04D
:1002120004DF00C019F001C01AF00A0E046E000ECD
:10022200056EFBDE08C000F009C001F0240E0024B8
:10023200E96E000E0120EA6EEECF83FF8088060E83
:100242000C6E300E0D6E0D2EFED70C2EFCD700005C
:1002520080980A0E046E000E056E19C000F01AC0D6
:1002620001F0DBDE00C019F001C01AF00A0E046EC4
:10027200000E056ED2DE08C000F009C001F0240EA7
:100282000024E96E000E0120EA6EEECF83FF808625
:10029200060E0C6E300E0D6E0D2EFED70C2EFCD7F8
:1002A200000080960A0E046E000E056E19C000F062
:1002B2001AC001F0B2DE00C019F001C01AF00A0E35
:1002C200046E000E056EA9DE08C000F009C001F040
:1002D200240E0024E96E000E0120EA6EEECF83FFA9
:1002E2008084060E0C6E300E0D6E0D2EFED70C2E77
:0A02F200FCD700008094D6D6FFD799
:020000040030CA
:0D000100021F1EFF8381FF0FC00FE00F40A4
:00000001FF
