:1000000018EF04F00000000000EF00F00000000016
:0A0010000000000000000000F3D71C
:10001C000F0E0C6E470E0D6E0D2EFED70C2EFCD750
:06002C00000000001200BC
:06003200000000001200B6
:0A003800210E0D6E0D2EFED71200F2
:100042000B840BAE2CEF00F0010E036E026A016A04
:0A005200006A0A360232FF0E1200A7
:10005C00086A096A100E0C6E013408360936045011
:10006C00085E0550D8A0053C095ED8B007D00450F6
:10007C0008260550D8B0053C0926D8900036013624
:06008C000C2EEAD7120061
:080092000AAE029E000E1200EE
:0E009A00026A016A006A086A036A000E120018
:1000A80046BE02D0839E01D0838E46BC02D0839C7C
:1000B80001D0838C46BA02D0839A01D0838A46B88D
:1000C80002D0839801D0838834B002D0848401D0D0
:1000D80084948482AADF849246B602D0839E01D09B
:1000E800838E46B402D0839C01D0838C46B202D062
:1000F800839A01D0838A46B002D0839801D083883E
:1001080034B002D0848401D0849484828EDF8492B7
:0C01180034A002D07FDF01D08BDF12008A
:100124000B6A0A6A096A00500402F4CF09F0F3CF9B
:1001340008F001500502F4CF0BF0F3CF0AF00050A1
:100144000502F3500926F4500A22E86A0B220150F2
:100154000402F3500926F4500A22E86A0B2208C06C
:1001640000F009C001F00AC002F00BC003F0120055
:100174000B800BAEC6EF00F0026A0AAEFF0E026EF1
:0C018400016E006E0A360232FF0E1200FF
:0C0190000E0E0D6E0D2EFED700001200AA
:10019C00436A050E435C0AE243504124E16E000EB3
:1001AC004220E26E200EE66E432AF3D743504124E0
:1001BC00E16E000E4220E26EE66A43064350412493
:1001CC00446E000E4220456E0A0E046E000E056E43
:1001DC003FC000F040C001F03BDF08C000F009C098
:1001EC0001F0300E002644C0E1FF45C0E2FF00C024
:1001FC00E6FF0A0E046E000E056E3FC000F040C014
:10020C0001F026DF00C03FF001C040F0000E0118E5
:10021C0002E1000E001801E102D04306CFD7120014
:0C022C0034903FC046F03ADF34801200EE
:100238000C6A0E6A0250D8A435EF01F001C002F032
:1002480000C001F0006A0E860250D8A435EF01F014
:1002580001C002F0016A0E960E880250D8B447EF2A
:1002680001F00E50035ED8A4D8A04CEF01F0D8904E
:1002780002BE51EF01F0003601360236032E3CEF84
:1002880001F04CEF01F0010E0C6E03DF54EF01F0AA
:10029800020E0C6ED2DE54EF01F0040E0C6EF5DE89
:0202A800120042
:1002AA000B820BAE5FEF01F0036802680168006819
:0802BA000A360232FF0E1200A9
:1002C2000050086E0150006E016A026A036A0B6AEE
:1002D2000C6A960E036E0A6A00C001F008C000F0B4
:0802E200086A026AA8DF12009D
:0802EA00BE6ABD98BD9A120026
:1002F2000900F5CFE6FF0006FBE10106F9E1120075
:0A0302009494CA840C0EBD12120080
:10030C00C26A1E1C006E0050C116070EC012C08EB1
:10031C0035C000F000360090003600900050C2123C
:10032C00C28030DFC282C2A201D0FDD7C4CF01F09F
:0E033C00006AC3500012000E0112C29012009F
:10034A00969296949598959A959C959E8492849463
:10035A00839E839C839A83985CDE5BDE5ADE838A63
:10036A008388848261DE849254DE84825DDE849294
:10037A0050DE848259DE84924CDE8398848254DE75
:10038A00849247DE848250DE8492839A838E8482AA
:10039A004BDE84923EDE839E8388848245DE84928D
:1003AA008398848241DE849234DE84823DDE8492A4
:1003BA008388848239DE84922CDE8398848234DEB8
:1003CA008492838E838C838A838884822DDE8492AE
:0603DA0020DE3480120059
:1003E000376A386A35C003F036C004F035C005F00E
:1003F00036C006F003C0E9FF04C0EAFFEE50200A51
:1004000004E13750381001E110D0010E376E000EB4
:10041000386E03C0E9FF04C0EAFF05C0E1FF06C073
:10042000E2FFEECFE6FF054A062A03C001F004C052
:1004300002F0034A042A01C0E9FF02C0EAFFEE50BD
:0E044000000AD8E135C000F036C001F012000D
:10044E000FD0800E356E19D0C00E356E16D0940EAC
:10045E00356E13D0D40E356E10D0800E356E0DD095
:10046E003550010AEEE03550020AEEE03550030A2F
:10047E00EEE03550040AEEE0F0D73604006E35504B
:10048E00002600C035F000C046F007DE3490396A11
:10049E0039503724E96E000E3820EA6EEE520BE02A
:1004AE0039503724E96E000E3820EA6EEECF3FF059
:0A04BE00B6DE392AEDD734801200B3
:1004C800376A37503524E96E000E3620EA6EEE5250
:1004D8000BE037503524E96E000E3620EA6EEECF79
:0A04E8003FF0A0DE372AEDD7120026
:1004F2003B6A3C6A35C03DF036C03EF0800E36188D
:10050200006E800E005C02E1000E355C0BE2010E13
:100512003B6E000E3C6E355000083D6E36C03EF01C
:10052200000E3E563DC03FF03EC040F037C041F0A5
:1005320038C042F032DE060E396E000E3A6E000E00
:10054200006E3A50005C02E13950000819E239505D
:100552003724E16E3A503820E26E010E395C006EAB
:10056200000E3A58016E00503724E96E01503820CF
:10057200EA6EEECFE6FF010E395E000E3A5ADFD781
:1005820037C0E1FF38C0E2FF200EE66E3B503C1060
:100592001AE0396A3A6A39503724E96E3A503820FB
:1005A200EA6EEE50200A03E1394A3A2AF4D7010EE4
:1005B200395E000E3A5A39503724E16E3A503820EB
:0805C200E26E2D0EE66E120040
:1005CA00086A096A000E076203646AEF03F00250C0
:1005DA0006180A6E075003267E0ED8A0FBEF02F01B
:1005EA00035ED8B06EEF03F0FFEF02F0035ED8A00F
:1005FA0072EF03F0028E068E02C00EF001C00BF0FD
:10060A0000C00DF000500402F4CF0CF001500502B6
:10061A00F4CF00F0F3CF08F00402F3500C26F450A4
:10062A000822000E00220D500502F3500C26F45049
:10063A000822000E002202500402F3500826F45049
:10064A00002202500502016A000E0122F350002620
:10065A00F45001220D500602F3500826F4500022ED
:10066A00026A000E012202220B500602F3500026F3
:10067A00F4500122000E02220E500602F350012607
:10068A00F450022202BE52EF03F008360036013659
:10069A0002360306D8B472EF03F065EF03F0D88090
:1006AA00800E08640030000E002201220222D8A027
:1006BA0065EF03F0023201320032034A6EEF03F0B3
:1006CA000AAE029E000E74EF03F0010EE1DC74EF35
:1006DA0003F0020EE5DD74EF03F0040EADDC120048
:1006EA000B6A0C6A0A6A0350D8B4BFEF03F0028E91
:1006FA008E0E035E03BE87EF03F0D8B487EF03F0D4
:10070A00C3EF03F0036C080E035CD8A09EEF03F05E
:10071A00036E013602C001F0026A080E035CD8A01B
:10072A009EEF03F00136016A0350D8A4D890A8EFCF
:10073A0003F00350D8B4A8EF03F0D8900232013284
:10074A00032EA2EF03F00BBC01A0B5EF03F0D8A073
:10075A00B5EF03F0012AD8B4022A02BED2EF03F0A1
:10076A000AAED7EF03F0021E011E012AD8B4022AEC
:10077A00D7EF03F0026A016AD7EF03F00B800BAEE2
:10078A00DBEF03F0026A0AAEDBEF03F0FF0E026E44
:10079A00016E0A360232DBEF03F0010E0C6EE5DC65
:1007AA00DDEF03F0000E0C6EDDEF03F0FF0E0C6EB2
:0A07BA000150006E0250016E1200A3
:1007C400CB50010F006E016A000E012235C004F007
:1007D400000E056EA5DC060E026E00C004F001C01A
:1007E40005F0025005E005320432059EFF0FFAD7EA
:1007F400040E016E04C000F0015004E000360090C5
:10080400FF0FFBD7300E0014036E04C000F005C0C8
:1008140001F001320032019E01320032019E00C01B
:0C082400BEFF0F0EBD160350BD121200E7
:100830000CEC05F0FF0E806EFF0E926E010EC26E84
:10084000CE0EC16EBE0EC06ECA80CA92630ECB6E53
:100850004CDD57DD7ADD0C0E466E26DC010E466E51
:1008600023DC070EB46E939093929394939693988F
:10087000939A939C939E356A49DD00C017F001C09E
:1008800018F01FDD8F0E046EC20E056E750E066E1B
:100890007C0E076E9ADE29DF00C015F001C016F04D
:1008A00000C035F08FDF17C035F018C036F0240EC9
:1008B000376E000E386E1DDE15C035F016C036F0EE
:1008C0002C0E376E000E386E14DE010E466E54ECA0
:1008D00000F0240E356E000E366E82DD010E356E90
:1008E000010E366E190E376E000E386EB0DD240E16
:1008F000356E000E366EE8DD2C0E356E000E366E4F
:100900006FDD020E356E010E366E1F0E376E000E55
:10091000386E9DDD2C0E356E000E366ED5DD000E68
:10092000006E1850005C02E11750E70856E2938011
:100930001850010802E117504A0847E29382185004
:10094000010802E11750AD0839E2938418500208FB
:1009500002E1175010082CE293861850020802E1B9
:100960001750730820E293881850020802E11750CC
:10097000D60815E2938A1850030802E11750390887
:100980000BE2938C1850030802E117509C0802E216
:10099000938E01D0939E02D0939C939E03D0939A02
:1009A000939C939E04D09398939A939C939E05D086
:1009B00093969398939A939C939E06D09394939630
:1009C0009398939A939C939E07D093929394939623
:1009D0009398939A939C939E08D093909392939418
:1009E00093969398939A939C939E020E0B6E040E8B
:1009F0000C6EBA0E0D6E0D2EFED70C2EFCD70B2EE4
:080A0000FAD7000038D7FFD738
:100A180010EE15F00F0E006E010E016E080EF66E48
:0E0A28000A0EF76E000EF86E79EC01F0120067
:020A08000000EC
:020A0A000000EA
:050A0C00545F453A00B3
:010A110030B4
:050A1200445F433A00BF
:020000040030CA
:0D000100021F1EFF8381FF0FC00FE00F40A4
:00000001FF
